{"abi":[{"type":"constructor","inputs":[{"name":"_owner","type":"address","internalType":"address"},{"name":"_validator","type":"address","internalType":"address"}],"stateMutability":"nonpayable"},{"type":"function","name":"createJob","inputs":[{"name":"jobId","type":"bytes32","internalType":"bytes32"},{"name":"fee","type":"uint256","internalType":"uint256"}],"outputs":[],"stateMutability":"nonpayable"},{"type":"function","name":"failJob","inputs":[{"name":"jobId","type":"bytes32","internalType":"bytes32"},{"name":"reason","type":"string","internalType":"string"}],"outputs":[],"stateMutability":"nonpayable"},{"type":"function","name":"getJob","inputs":[{"name":"jobId","type":"bytes32","internalType":"bytes32"}],"outputs":[{"name":"","type":"tuple","internalType":"struct ArgosJobManager.Job","components":[{"name":"jobId","type":"bytes32","internalType":"bytes32"},{"name":"client","type":"address","internalType":"address"},{"name":"fee","type":"uint256","internalType":"uint256"},{"name":"resultHash","type":"bytes32","internalType":"bytes32"},{"name":"status","type":"uint8","internalType":"enum ArgosJobManager.JobStatus"}]}],"stateMutability":"view"},{"type":"function","name":"jobs","inputs":[{"name":"","type":"bytes32","internalType":"bytes32"}],"outputs":[{"name":"jobId","type":"bytes32","internalType":"bytes32"},{"name":"client","type":"address","internalType":"address"},{"name":"fee","type":"uint256","internalType":"uint256"},{"name":"resultHash","type":"bytes32","internalType":"bytes32"},{"name":"status","type":"uint8","internalType":"enum ArgosJobManager.JobStatus"}],"stateMutability":"view"},{"type":"function","name":"owner","inputs":[],"outputs":[{"name":"","type":"address","internalType":"address"}],"stateMutability":"view"},{"type":"function","name":"settleJob","inputs":[{"name":"jobId","type":"bytes32","internalType":"bytes32"},{"name":"resultHash","type":"bytes32","internalType":"bytes32"}],"outputs":[],"stateMutability":"nonpayable"},{"type":"function","name":"validator","inputs":[],"outputs":[{"name":"","type":"address","internalType":"address"}],"stateMutability":"view"},{"type":"event","name":"JobCompleted","inputs":[{"name":"jobId","type":"bytes32","indexed":true,"internalType":"bytes32"},{"name":"resultHash","type":"bytes32","indexed":false,"internalType":"bytes32"}],"anonymous":false},{"type":"event","name":"JobCreated","inputs":[{"name":"jobId","type":"bytes32","indexed":true,"internalType":"bytes32"},{"name":"client","type":"address","indexed":true,"internalType":"address"},{"name":"fee","type":"uint256","indexed":false,"internalType":"uint256"}],"anonymous":false},{"type":"event","name":"JobFailed","inputs":[{"name":"jobId","type":"bytes32","indexed":true,"internalType":"bytes32"},{"name":"reason","type":"string","indexed":false,"internalType":"string"}],"anonymous":false}],"bytecode":{"object":"0x60c06040523480156200001157600080fd5b506040516200138c3803806200138c833981810160405281019062000037919062000266565b600073ffffffffffffffffffffffffffffffffffffffff168273ffffffffffffffffffffffffffffffffffffffff1603620000a9576040517f08c379a0000000000000000000000000000000000000000000000000000000008152600401620000a0906200030e565b60405180910390fd5b600073ffffffffffffffffffffffffffffffffffffffff168173ffffffffffffffffffffffffffffffffffffffff16036200011b576040517f08c379a0000000000000000000000000000000000000000000000000000000008152600401620001129062000380565b60405180910390fd5b8073ffffffffffffffffffffffffffffffffffffffff168273ffffffffffffffffffffffffffffffffffffffff16036200018c576040517f08c379a00000000000000000000000000000000000000000000000000000000081526004016200018390620003f2565b60405180910390fd5b8173ffffffffffffffffffffffffffffffffffffffff1660808173ffffffffffffffffffffffffffffffffffffffff16815250508073ffffffffffffffffffffffffffffffffffffffff1660a08173ffffffffffffffffffffffffffffffffffffffff1681525050505062000414565b600080fd5b600073ffffffffffffffffffffffffffffffffffffffff82169050919050565b60006200022e8262000201565b9050919050565b620002408162000221565b81146200024c57600080fd5b50565b600081519050620002608162000235565b92915050565b6000806040838503121562000280576200027f620001fc565b5b600062000290858286016200024f565b9250506020620002a3858286016200024f565b9150509250929050565b600082825260208201905092915050565b7f496e76616c6964206f776e657200000000000000000000000000000000000000600082015250565b6000620002f6600d83620002ad565b91506200030382620002be565b602082019050919050565b600060208201905081810360008301526200032981620002e7565b9050919050565b7f496e76616c69642076616c696461746f72000000000000000000000000000000600082015250565b600062000368601183620002ad565b9150620003758262000330565b602082019050919050565b600060208201905081810360008301526200039b8162000359565b9050919050565b7f4f776e657220616e642076616c696461746f72206d7573742064696666657200600082015250565b6000620003da601f83620002ad565b9150620003e782620003a2565b602082019050919050565b600060208201905081810360008301526200040d81620003cb565b9050919050565b60805160a051610f4462000448600039600081816101db015281816101ff015261030a015260006106f50152610f446000f3fe608060405234801561001057600080fd5b506004361061007d5760003560e01c806385585c061161005b57806385585c06146100f05780638801c9281461010c5780638da5cb5b14610128578063f729cf0d146101465761007d565b806338ed7cfc146100825780633a5381b5146100b65780633a917feb146100d4575b600080fd5b61009c6004803603810190610097919061088f565b610176565b6040516100ad95949392919061099c565b60405180910390f35b6100be6101d9565b6040516100cb91906109ef565b60405180910390f35b6100ee60048036038101906100e99190610a6f565b6101fd565b005b61010a60048036038101906101059190610acf565b610308565b005b61012660048036038101906101219190610b3b565b610549565b005b6101306106f3565b60405161013d91906109ef565b60405180910390f35b610160600480360381019061015b919061088f565b610717565b60405161016d9190610c1f565b60405180910390f35b60006020528060005260406000206000915090508060000154908060010160009054906101000a900473ffffffffffffffffffffffffffffffffffffffff16908060020154908060030154908060040160009054906101000a900460ff16905085565b7f000000000000000000000000000000000000000000000000000000000000000081565b7f000000000000000000000000000000000000000000000000000000000000000073ffffffffffffffffffffffffffffffffffffffff163373ffffffffffffffffffffffffffffffffffffffff161461028b576040517f08c379a000000000000000000000000000000000000000000000000000000000815260040161028290610c97565b60405180910390fd5b600360008085815260200190815260200160002060040160006101000a81548160ff021916908360038111156102c4576102c3610925565b5b0217905550827f0d64e3040027d75c3682a1783051bdcac4bda50d37973a650a2117a153b9f1e683836040516102fb929190610d04565b60405180910390a2505050565b7f000000000000000000000000000000000000000000000000000000000000000073ffffffffffffffffffffffffffffffffffffffff163373ffffffffffffffffffffffffffffffffffffffff1614610396576040517f08c379a000000000000000000000000000000000000000000000000000000000815260040161038d90610d74565b60405180910390fd5b600060038111156103aa576103a9610925565b5b60008084815260200190815260200160002060040160009054906101000a900460ff1660038111156103df576103de610925565b5b14806104315750600160038111156103fa576103f9610925565b5b60008084815260200190815260200160002060040160009054906101000a900460ff16600381111561042f5761042e610925565b5b145b610470576040517f08c379a000000000000000000000000000000000000000000000000000000000815260040161046790610de0565b60405180910390fd5b6000801b81036104b5576040517f08c379a00000000000000000000000000000000000000000000000000000000081526004016104ac90610e4c565b60405180910390fd5b600260008084815260200190815260200160002060040160006101000a81548160ff021916908360038111156104ee576104ed610925565b5b02179055508060008084815260200190815260200160002060030181905550817f8f048f4eb4c8f0f6f874b3730c4885f3b32e7d73fc3decbcfd1fe82552201eb88260405161053d9190610e6c565b60405180910390a25050565b6000801b60008084815260200190815260200160002060000154146105a3576040517f08c379a000000000000000000000000000000000000000000000000000000000815260040161059a90610ed3565b60405180910390fd5b6040518060a001604052808381526020013373ffffffffffffffffffffffffffffffffffffffff1681526020018281526020016000801b8152602001600060038111156105f3576105f2610925565b5b8152506000808481526020019081526020016000206000820151816000015560208201518160010160006101000a81548173ffffffffffffffffffffffffffffffffffffffff021916908373ffffffffffffffffffffffffffffffffffffffff160217905550604082015181600201556060820151816003015560808201518160040160006101000a81548160ff0219169083600381111561069857610697610925565b5b02179055509050503373ffffffffffffffffffffffffffffffffffffffff16827fc9f761cef4b498085beaa83472253ad1dbcaa175c7e97bd6893d9da4b6ab0868836040516106e79190610ef3565b60405180910390a35050565b7f000000000000000000000000000000000000000000000000000000000000000081565b61071f6107f2565b6000808381526020019081526020016000206040518060a0016040529081600082015481526020016001820160009054906101000a900473ffffffffffffffffffffffffffffffffffffffff1673ffffffffffffffffffffffffffffffffffffffff1673ffffffffffffffffffffffffffffffffffffffff16815260200160028201548152602001600382015481526020016004820160009054906101000a900460ff1660038111156107d5576107d4610925565b5b60038111156107e7576107e6610925565b5b815250509050919050565b6040518060a0016040528060008019168152602001600073ffffffffffffffffffffffffffffffffffffffff16815260200160008152602001600080191681526020016000600381111561084957610848610925565b5b81525090565b600080fd5b600080fd5b6000819050919050565b61086c81610859565b811461087757600080fd5b50565b60008135905061088981610863565b92915050565b6000602082840312156108a5576108a461084f565b5b60006108b38482850161087a565b91505092915050565b6108c581610859565b82525050565b600073ffffffffffffffffffffffffffffffffffffffff82169050919050565b60006108f6826108cb565b9050919050565b610906816108eb565b82525050565b6000819050919050565b61091f8161090c565b82525050565b7f4e487b7100000000000000000000000000000000000000000000000000000000600052602160045260246000fd5b6004811061096557610964610925565b5b50565b600081905061097682610954565b919050565b600061098682610968565b9050919050565b6109968161097b565b82525050565b600060a0820190506109b160008301886108bc565b6109be60208301876108fd565b6109cb6040830186610916565b6109d860608301856108bc565b6109e5608083018461098d565b9695505050505050565b6000602082019050610a0460008301846108fd565b92915050565b600080fd5b600080fd5b600080fd5b60008083601f840112610a2f57610a2e610a0a565b5b8235905067ffffffffffffffff811115610a4c57610a4b610a0f565b5b602083019150836001820283011115610a6857610a67610a14565b5b9250929050565b600080600060408486031215610a8857610a8761084f565b5b6000610a968682870161087a565b935050602084013567ffffffffffffffff811115610ab757610ab6610854565b5b610ac386828701610a19565b92509250509250925092565b60008060408385031215610ae657610ae561084f565b5b6000610af48582860161087a565b9250506020610b058582860161087a565b9150509250929050565b610b188161090c565b8114610b2357600080fd5b50565b600081359050610b3581610b0f565b92915050565b60008060408385031215610b5257610b5161084f565b5b6000610b608582860161087a565b9250506020610b7185828601610b26565b9150509250929050565b610b8481610859565b82525050565b610b93816108eb565b82525050565b610ba28161090c565b82525050565b610bb18161097b565b82525050565b60a082016000820151610bcd6000850182610b7b565b506020820151610be06020850182610b8a565b506040820151610bf36040850182610b99565b506060820151610c066060850182610b7b565b506080820151610c196080850182610ba8565b50505050565b600060a082019050610c346000830184610bb7565b92915050565b600082825260208201905092915050565b7f4f6e6c792076616c696461746f72000000000000000000000000000000000000600082015250565b6000610c81600e83610c3a565b9150610c8c82610c4b565b602082019050919050565b60006020820190508181036000830152610cb081610c74565b9050919050565b82818337600083830152505050565b6000601f19601f8301169050919050565b6000610ce38385610c3a565b9350610cf0838584610cb7565b610cf983610cc6565b840190509392505050565b60006020820190508181036000830152610d1f818486610cd7565b90509392505050565b7f4f6e6c792076616c696461746f722063616e20736574746c6500000000000000600082015250565b6000610d5e601983610c3a565b9150610d6982610d28565b602082019050919050565b60006020820190508181036000830152610d8d81610d51565b9050919050565b7f496e76616c696420737461747573000000000000000000000000000000000000600082015250565b6000610dca600e83610c3a565b9150610dd582610d94565b602082019050919050565b60006020820190508181036000830152610df981610dbd565b9050919050565b7f526573756c742068617368207265717569726564000000000000000000000000600082015250565b6000610e36601483610c3a565b9150610e4182610e00565b602082019050919050565b60006020820190508181036000830152610e6581610e29565b9050919050565b6000602082019050610e8160008301846108bc565b92915050565b7f4a6f6220616c7265616479206578697374730000000000000000000000000000600082015250565b6000610ebd601283610c3a565b9150610ec882610e87565b602082019050919050565b60006020820190508181036000830152610eec81610eb0565b9050919050565b6000602082019050610f086000830184610916565b9291505056fea2646970667358221220645448c0e9bc5a631a59512df02e60d38b6ee7b3f248b775655435b6bf11863b64736f6c63430008130033","linkReferences":{}},"methodIdentifiers":{"createJob(bytes32,uint256)":"8801c928","failJob(bytes32,string)":"3a917feb","getJob(bytes32)":"f729cf0d","jobs(bytes32)":"38ed7cfc","owner()":"8da5cb5b","settleJob(bytes32,bytes32)":"85585c06","validator()":"3a5381b5"},"id":0}